{
  "contractName": "NFTMinter",
  "abi": [
    {
      "inputs": [],
      "stateMutability": "nonpayable",
      "type": "constructor"
    },
    {
      "anonymous": false,
      "inputs": [
        {
          "indexed": true,
          "internalType": "address",
          "name": "owner",
          "type": "address"
        },
        {
          "indexed": true,
          "internalType": "address",
          "name": "approved",
          "type": "address"
        },
        {
          "indexed": true,
          "internalType": "uint256",
          "name": "tokenId",
          "type": "uint256"
        }
      ],
      "name": "Approval",
      "type": "event"
    },
    {
      "anonymous": false,
      "inputs": [
        {
          "indexed": true,
          "internalType": "address",
          "name": "owner",
          "type": "address"
        },
        {
          "indexed": true,
          "internalType": "address",
          "name": "operator",
          "type": "address"
        },
        {
          "indexed": false,
          "internalType": "bool",
          "name": "approved",
          "type": "bool"
        }
      ],
      "name": "ApprovalForAll",
      "type": "event"
    },
    {
      "anonymous": false,
      "inputs": [
        {
          "indexed": true,
          "internalType": "address",
          "name": "from",
          "type": "address"
        },
        {
          "indexed": true,
          "internalType": "address",
          "name": "to",
          "type": "address"
        },
        {
          "indexed": true,
          "internalType": "uint256",
          "name": "tokenId",
          "type": "uint256"
        }
      ],
      "name": "Transfer",
      "type": "event"
    },
    {
      "inputs": [
        {
          "internalType": "address",
          "name": "to",
          "type": "address"
        },
        {
          "internalType": "uint256",
          "name": "tokenId",
          "type": "uint256"
        }
      ],
      "name": "approve",
      "outputs": [],
      "stateMutability": "nonpayable",
      "type": "function"
    },
    {
      "inputs": [
        {
          "internalType": "address",
          "name": "owner",
          "type": "address"
        }
      ],
      "name": "balanceOf",
      "outputs": [
        {
          "internalType": "uint256",
          "name": "",
          "type": "uint256"
        }
      ],
      "stateMutability": "view",
      "type": "function"
    },
    {
      "inputs": [
        {
          "internalType": "uint256",
          "name": "tokenId",
          "type": "uint256"
        }
      ],
      "name": "getApproved",
      "outputs": [
        {
          "internalType": "address",
          "name": "",
          "type": "address"
        }
      ],
      "stateMutability": "view",
      "type": "function"
    },
    {
      "inputs": [
        {
          "internalType": "address",
          "name": "owner",
          "type": "address"
        },
        {
          "internalType": "address",
          "name": "operator",
          "type": "address"
        }
      ],
      "name": "isApprovedForAll",
      "outputs": [
        {
          "internalType": "bool",
          "name": "",
          "type": "bool"
        }
      ],
      "stateMutability": "view",
      "type": "function"
    },
    {
      "inputs": [],
      "name": "name",
      "outputs": [
        {
          "internalType": "string",
          "name": "",
          "type": "string"
        }
      ],
      "stateMutability": "view",
      "type": "function"
    },
    {
      "inputs": [
        {
          "internalType": "uint256",
          "name": "tokenId",
          "type": "uint256"
        }
      ],
      "name": "ownerOf",
      "outputs": [
        {
          "internalType": "address",
          "name": "",
          "type": "address"
        }
      ],
      "stateMutability": "view",
      "type": "function"
    },
    {
      "inputs": [
        {
          "internalType": "address",
          "name": "from",
          "type": "address"
        },
        {
          "internalType": "address",
          "name": "to",
          "type": "address"
        },
        {
          "internalType": "uint256",
          "name": "tokenId",
          "type": "uint256"
        }
      ],
      "name": "safeTransferFrom",
      "outputs": [],
      "stateMutability": "nonpayable",
      "type": "function"
    },
    {
      "inputs": [
        {
          "internalType": "address",
          "name": "from",
          "type": "address"
        },
        {
          "internalType": "address",
          "name": "to",
          "type": "address"
        },
        {
          "internalType": "uint256",
          "name": "tokenId",
          "type": "uint256"
        },
        {
          "internalType": "bytes",
          "name": "_data",
          "type": "bytes"
        }
      ],
      "name": "safeTransferFrom",
      "outputs": [],
      "stateMutability": "nonpayable",
      "type": "function"
    },
    {
      "inputs": [
        {
          "internalType": "address",
          "name": "operator",
          "type": "address"
        },
        {
          "internalType": "bool",
          "name": "approved",
          "type": "bool"
        }
      ],
      "name": "setApprovalForAll",
      "outputs": [],
      "stateMutability": "nonpayable",
      "type": "function"
    },
    {
      "inputs": [],
      "name": "symbol",
      "outputs": [
        {
          "internalType": "string",
          "name": "",
          "type": "string"
        }
      ],
      "stateMutability": "view",
      "type": "function"
    },
    {
      "inputs": [
        {
          "internalType": "uint256",
          "name": "index",
          "type": "uint256"
        }
      ],
      "name": "tokenByIndex",
      "outputs": [
        {
          "internalType": "uint256",
          "name": "",
          "type": "uint256"
        }
      ],
      "stateMutability": "view",
      "type": "function"
    },
    {
      "inputs": [
        {
          "internalType": "address",
          "name": "owner",
          "type": "address"
        },
        {
          "internalType": "uint256",
          "name": "index",
          "type": "uint256"
        }
      ],
      "name": "tokenOfOwnerByIndex",
      "outputs": [
        {
          "internalType": "uint256",
          "name": "",
          "type": "uint256"
        }
      ],
      "stateMutability": "view",
      "type": "function"
    },
    {
      "inputs": [
        {
          "internalType": "uint256",
          "name": "tokenId",
          "type": "uint256"
        }
      ],
      "name": "tokenURI",
      "outputs": [
        {
          "internalType": "string",
          "name": "",
          "type": "string"
        }
      ],
      "stateMutability": "view",
      "type": "function"
    },
    {
      "inputs": [],
      "name": "totalSupply",
      "outputs": [
        {
          "internalType": "uint256",
          "name": "",
          "type": "uint256"
        }
      ],
      "stateMutability": "view",
      "type": "function"
    },
    {
      "inputs": [
        {
          "internalType": "address",
          "name": "from",
          "type": "address"
        },
        {
          "internalType": "address",
          "name": "to",
          "type": "address"
        },
        {
          "internalType": "uint256",
          "name": "tokenId",
          "type": "uint256"
        }
      ],
      "name": "transferFrom",
      "outputs": [],
      "stateMutability": "nonpayable",
      "type": "function"
    },
    {
      "inputs": [
        {
          "internalType": "bytes4",
          "name": "interfaceId",
          "type": "bytes4"
        }
      ],
      "name": "supportsInterface",
      "outputs": [
        {
          "internalType": "bool",
          "name": "",
          "type": "bool"
        }
      ],
      "stateMutability": "view",
      "type": "function"
    },
    {
      "inputs": [
        {
          "internalType": "address",
          "name": "_minter",
          "type": "address"
        },
        {
          "internalType": "string",
          "name": "_tokenURI",
          "type": "string"
        }
      ],
      "name": "safeMintImage",
      "outputs": [],
      "stateMutability": "nonpayable",
      "type": "function"
    },
    {
      "inputs": [
        {
          "internalType": "address",
          "name": "_minter",
          "type": "address"
        },
        {
          "internalType": "string",
          "name": "_content",
          "type": "string"
        }
      ],
      "name": "safeMintText",
      "outputs": [],
      "stateMutability": "nonpayable",
      "type": "function"
    },
    {
      "inputs": [],
      "name": "fetchNFTs",
      "outputs": [
        {
          "components": [
            {
              "internalType": "string",
              "name": "tokenURI",
              "type": "string"
            },
            {
              "internalType": "string",
              "name": "fileType",
              "type": "string"
            },
            {
              "internalType": "string",
              "name": "content",
              "type": "string"
            }
          ],
          "internalType": "struct NFTMinter.NFT[]",
          "name": "",
          "type": "tuple[]"
        }
      ],
      "stateMutability": "view",
      "type": "function"
    },
    {
      "inputs": [
        {
          "internalType": "uint256",
          "name": "tokenId",
          "type": "uint256"
        }
      ],
      "name": "fetchNFT",
      "outputs": [
        {
          "components": [
            {
              "internalType": "string",
              "name": "tokenURI",
              "type": "string"
            },
            {
              "internalType": "string",
              "name": "fileType",
              "type": "string"
            },
            {
              "internalType": "string",
              "name": "content",
              "type": "string"
            }
          ],
          "internalType": "struct NFTMinter.NFT",
          "name": "",
          "type": "tuple"
        }
      ],
      "stateMutability": "view",
      "type": "function"
    }
  ],
  "bytecode": "0x60806040523480156200001157600080fd5b506040518060400160405280600a81526020017f4e4654204d696e746572000000000000000000000000000000000000000000008152506040518060400160405280600481526020017f4e46544d00000000000000000000000000000000000000000000000000000000815250816000908051906020019062000096929190620000b8565b508060019080519060200190620000af929190620000b8565b505050620001cd565b828054620000c69062000197565b90600052602060002090601f016020900481019282620000ea576000855562000136565b82601f106200010557805160ff191683800117855562000136565b8280016001018555821562000136579182015b828111156200013557825182559160200191906001019062000118565b5b50905062000145919062000149565b5090565b5b80821115620001645760008160009055506001016200014a565b5090565b7f4e487b7100000000000000000000000000000000000000000000000000000000600052602260045260246000fd5b60006002820490506001821680620001b057607f821691505b60208210811415620001c757620001c662000168565b5b50919050565b613add80620001dd6000396000f3fe608060405234801561001057600080fd5b506004361061012c5760003560e01c806370a08231116100ad578063b88d4fde11610071578063b88d4fde14610355578063c87b56dd14610371578063d8f73ed5146103a1578063deb1250d146103bd578063e985e9c5146103ed5761012c565b806370a08231146102b157806378f04baf146102e15780639500dcd5146102ff57806395d89b411461031b578063a22cb465146103395761012c565b806323b872dd116100f457806323b872dd146101e95780632f745c591461020557806342842e0e146102355780634f6ccce7146102515780636352211e146102815761012c565b806301ffc9a71461013157806306fdde0314610161578063081812fc1461017f578063095ea7b3146101af57806318160ddd146101cb575b600080fd5b61014b60048036038101906101469190612581565b61041d565b60405161015891906125c9565b60405180910390f35b61016961042f565b604051610176919061267d565b60405180910390f35b610199600480360381019061019491906126d5565b6104c1565b6040516101a69190612743565b60405180910390f35b6101c960048036038101906101c4919061278a565b610546565b005b6101d361065e565b6040516101e091906127d9565b60405180910390f35b61020360048036038101906101fe91906127f4565b61066b565b005b61021f600480360381019061021a919061278a565b6106cb565b60405161022c91906127d9565b60405180910390f35b61024f600480360381019061024a91906127f4565b610770565b005b61026b600480360381019061026691906126d5565b610790565b60405161027891906127d9565b60405180910390f35b61029b600480360381019061029691906126d5565b610801565b6040516102a89190612743565b60405180910390f35b6102cb60048036038101906102c69190612847565b6108b3565b6040516102d891906127d9565b60405180910390f35b6102e961096b565b6040516102f691906129de565b60405180910390f35b61031960048036038101906103149190612b35565b610b80565b005b610323610d1f565b604051610330919061267d565b60405180910390f35b610353600480360381019061034e9190612bbd565b610db1565b005b61036f600480360381019061036a9190612c9e565b610dc7565b005b61038b600480360381019061038691906126d5565b610e29565b604051610398919061267d565b60405180910390f35b6103bb60048036038101906103b69190612b35565b610ed0565b005b6103d760048036038101906103d291906126d5565b610fcc565b6040516103e49190612d7f565b60405180910390f35b61040760048036038101906104029190612da1565b611212565b60405161041491906125c9565b60405180910390f35b6000610428826112a6565b9050919050565b60606000805461043e90612e10565b80601f016020809104026020016040519081016040528092919081815260200182805461046a90612e10565b80156104b75780601f1061048c576101008083540402835291602001916104b7565b820191906000526020600020905b81548152906001019060200180831161049a57829003601f168201915b5050505050905090565b60006104cc82611320565b61050b576040517f08c379a000000000000000000000000000000000000000000000000000000000815260040161050290612eb4565b60405180910390fd5b6004600083815260200190815260200160002060009054906101000a900473ffffffffffffffffffffffffffffffffffffffff169050919050565b600061055182610801565b90508073ffffffffffffffffffffffffffffffffffffffff168373ffffffffffffffffffffffffffffffffffffffff1614156105c2576040517f08c379a00000000000000000000000000000000000000000000000000000000081526004016105b990612f46565b60405180910390fd5b8073ffffffffffffffffffffffffffffffffffffffff166105e161138c565b73ffffffffffffffffffffffffffffffffffffffff161480610610575061060f8161060a61138c565b611212565b5b61064f576040517f08c379a000000000000000000000000000000000000000000000000000000000815260040161064690612fd8565b60405180910390fd5b6106598383611394565b505050565b6000600880549050905090565b61067c61067661138c565b8261144d565b6106bb576040517f08c379a00000000000000000000000000000000000000000000000000000000081526004016106b29061306a565b60405180910390fd5b6106c683838361152b565b505050565b60006106d6836108b3565b8210610717576040517f08c379a000000000000000000000000000000000000000000000000000000000815260040161070e906130fc565b60405180910390fd5b600660008473ffffffffffffffffffffffffffffffffffffffff1673ffffffffffffffffffffffffffffffffffffffff168152602001908152602001600020600083815260200190815260200160002054905092915050565b61078b83838360405180602001604052806000815250610dc7565b505050565b600061079a61065e565b82106107db576040517f08c379a00000000000000000000000000000000000000000000000000000000081526004016107d29061318e565b60405180910390fd5b600882815481106107ef576107ee6131ae565b5b90600052602060002001549050919050565b6000806002600084815260200190815260200160002060009054906101000a900473ffffffffffffffffffffffffffffffffffffffff169050600073ffffffffffffffffffffffffffffffffffffffff168173ffffffffffffffffffffffffffffffffffffffff1614156108aa576040517f08c379a00000000000000000000000000000000000000000000000000000000081526004016108a19061324f565b60405180910390fd5b80915050919050565b60008073ffffffffffffffffffffffffffffffffffffffff168273ffffffffffffffffffffffffffffffffffffffff161415610924576040517f08c379a000000000000000000000000000000000000000000000000000000000815260040161091b906132e1565b60405180910390fd5b600360008373ffffffffffffffffffffffffffffffffffffffff1673ffffffffffffffffffffffffffffffffffffffff168152602001908152602001600020549050919050565b6060600a805480602002602001604051908101604052809291908181526020016000905b82821015610b7757838290600052602060002090600302016040518060600160405290816000820180546109c290612e10565b80601f01602080910402602001604051908101604052809291908181526020018280546109ee90612e10565b8015610a3b5780601f10610a1057610100808354040283529160200191610a3b565b820191906000526020600020905b815481529060010190602001808311610a1e57829003601f168201915b50505050508152602001600182018054610a5490612e10565b80601f0160208091040260200160405190810160405280929190818152602001828054610a8090612e10565b8015610acd5780601f10610aa257610100808354040283529160200191610acd565b820191906000526020600020905b815481529060010190602001808311610ab057829003601f168201915b50505050508152602001600282018054610ae690612e10565b80601f0160208091040260200160405190810160405280929190818152602001828054610b1290612e10565b8015610b5f5780601f10610b3457610100808354040283529160200191610b5f565b820191906000526020600020905b815481529060010190602001808311610b4257829003601f168201915b5050505050815250508152602001906001019061098f565b50505050905090565b600b81604051610b90919061333d565b908152602001604051809103902060009054906101000a900460ff1615610bec576040517f08c379a0000000000000000000000000000000000000000000000000000000008152600401610be3906133a0565b60405180910390fd5b600a60405180606001604052808381526020016040518060400160405280600581526020017f696d61676500000000000000000000000000000000000000000000000000000081525081526020016040518060200160405280600081525081525090806001815401808255809150506001900390600052602060002090600302016000909190919091506000820151816000019080519060200190610c92929190612451565b506020820151816001019080519060200190610caf929190612451565b506040820151816002019080519060200190610ccc929190612451565b5050506000600a805490509050610ce38382611792565b6001600b83604051610cf5919061333d565b908152602001604051809103902060006101000a81548160ff021916908315150217905550505050565b606060018054610d2e90612e10565b80601f0160208091040260200160405190810160405280929190818152602001828054610d5a90612e10565b8015610da75780601f10610d7c57610100808354040283529160200191610da7565b820191906000526020600020905b815481529060010190602001808311610d8a57829003601f168201915b5050505050905090565b610dc3610dbc61138c565b83836117b0565b5050565b610dd8610dd261138c565b8361144d565b610e17576040517f08c379a0000000000000000000000000000000000000000000000000000000008152600401610e0e9061306a565b60405180910390fd5b610e238484848461191d565b50505050565b6060610e3482611320565b610e73576040517f08c379a0000000000000000000000000000000000000000000000000000000008152600401610e6a90613432565b60405180910390fd5b6000610e7d611979565b90506000815111610e9d5760405180602001604052806000815250610ec8565b80610ea784611990565b604051602001610eb8929190613452565b6040516020818303038152906040525b915050919050565b600a60405180606001604052806040518060200160405280600081525081526020016040518060400160405280600481526020017f746578740000000000000000000000000000000000000000000000000000000081525081526020018381525090806001815401808255809150506001900390600052602060002090600302016000909190919091506000820151816000019080519060200190610f76929190612451565b506020820151816001019080519060200190610f93929190612451565b506040820151816002019080519060200190610fb0929190612451565b5050506000600a805490509050610fc78382611792565b505050565b610fd46124d7565b610fdd82611320565b61101c576040517f08c379a000000000000000000000000000000000000000000000000000000000815260040161101390613432565b60405180910390fd5b600a60018361102b91906134a5565b8154811061103c5761103b6131ae565b5b906000526020600020906003020160405180606001604052908160008201805461106590612e10565b80601f016020809104026020016040519081016040528092919081815260200182805461109190612e10565b80156110de5780601f106110b3576101008083540402835291602001916110de565b820191906000526020600020905b8154815290600101906020018083116110c157829003601f168201915b505050505081526020016001820180546110f790612e10565b80601f016020809104026020016040519081016040528092919081815260200182805461112390612e10565b80156111705780601f1061114557610100808354040283529160200191611170565b820191906000526020600020905b81548152906001019060200180831161115357829003601f168201915b5050505050815260200160028201805461118990612e10565b80601f01602080910402602001604051908101604052809291908181526020018280546111b590612e10565b80156112025780601f106111d757610100808354040283529160200191611202565b820191906000526020600020905b8154815290600101906020018083116111e557829003601f168201915b5050505050815250509050919050565b6000600560008473ffffffffffffffffffffffffffffffffffffffff1673ffffffffffffffffffffffffffffffffffffffff16815260200190815260200160002060008373ffffffffffffffffffffffffffffffffffffffff1673ffffffffffffffffffffffffffffffffffffffff16815260200190815260200160002060009054906101000a900460ff16905092915050565b60007f780e9d63000000000000000000000000000000000000000000000000000000007bffffffffffffffffffffffffffffffffffffffffffffffffffffffff1916827bffffffffffffffffffffffffffffffffffffffffffffffffffffffff19161480611319575061131882611af1565b5b9050919050565b60008073ffffffffffffffffffffffffffffffffffffffff166002600084815260200190815260200160002060009054906101000a900473ffffffffffffffffffffffffffffffffffffffff1673ffffffffffffffffffffffffffffffffffffffff1614159050919050565b600033905090565b816004600083815260200190815260200160002060006101000a81548173ffffffffffffffffffffffffffffffffffffffff021916908373ffffffffffffffffffffffffffffffffffffffff160217905550808273ffffffffffffffffffffffffffffffffffffffff1661140783610801565b73ffffffffffffffffffffffffffffffffffffffff167f8c5be1e5ebec7d5bd14f71427d1e84f3dd0314c0f7b2291e5b200ac8c7c3b92560405160405180910390a45050565b600061145882611320565b611497576040517f08c379a000000000000000000000000000000000000000000000000000000000815260040161148e9061354b565b60405180910390fd5b60006114a283610801565b90508073ffffffffffffffffffffffffffffffffffffffff168473ffffffffffffffffffffffffffffffffffffffff1614806114e457506114e38185611212565b5b8061152257508373ffffffffffffffffffffffffffffffffffffffff1661150a846104c1565b73ffffffffffffffffffffffffffffffffffffffff16145b91505092915050565b8273ffffffffffffffffffffffffffffffffffffffff1661154b82610801565b73ffffffffffffffffffffffffffffffffffffffff16146115a1576040517f08c379a0000000000000000000000000000000000000000000000000000000008152600401611598906135dd565b60405180910390fd5b600073ffffffffffffffffffffffffffffffffffffffff168273ffffffffffffffffffffffffffffffffffffffff161415611611576040517f08c379a00000000000000000000000000000000000000000000000000000000081526004016116089061366f565b60405180910390fd5b61161c838383611bd3565b611627600082611394565b6001600360008573ffffffffffffffffffffffffffffffffffffffff1673ffffffffffffffffffffffffffffffffffffffff168152602001908152602001600020600082825461167791906134a5565b925050819055506001600360008473ffffffffffffffffffffffffffffffffffffffff1673ffffffffffffffffffffffffffffffffffffffff16815260200190815260200160002060008282546116ce919061368f565b92505081905550816002600083815260200190815260200160002060006101000a81548173ffffffffffffffffffffffffffffffffffffffff021916908373ffffffffffffffffffffffffffffffffffffffff160217905550808273ffffffffffffffffffffffffffffffffffffffff168473ffffffffffffffffffffffffffffffffffffffff167fddf252ad1be2c89b69c2b068fc378daa952ba7f163c4a11628f55a4df523b3ef60405160405180910390a461178d838383611be3565b505050565b6117ac828260405180602001604052806000815250611be8565b5050565b8173ffffffffffffffffffffffffffffffffffffffff168373ffffffffffffffffffffffffffffffffffffffff16141561181f576040517f08c379a000000000000000000000000000000000000000000000000000000000815260040161181690613731565b60405180910390fd5b80600560008573ffffffffffffffffffffffffffffffffffffffff1673ffffffffffffffffffffffffffffffffffffffff16815260200190815260200160002060008473ffffffffffffffffffffffffffffffffffffffff1673ffffffffffffffffffffffffffffffffffffffff16815260200190815260200160002060006101000a81548160ff0219169083151502179055508173ffffffffffffffffffffffffffffffffffffffff168373ffffffffffffffffffffffffffffffffffffffff167f17307eab39ab6107e8899845ad3d59bd9653f200f220920489ca2b5937696c318360405161191091906125c9565b60405180910390a3505050565b61192884848461152b565b61193484848484611c43565b611973576040517f08c379a000000000000000000000000000000000000000000000000000000000815260040161196a906137c3565b60405180910390fd5b50505050565b606060405180602001604052806000815250905090565b606060008214156119d8576040518060400160405280600181526020017f30000000000000000000000000000000000000000000000000000000000000008152509050611aec565b600082905060005b60008214611a0a5780806119f3906137e3565b915050600a82611a03919061385b565b91506119e0565b60008167ffffffffffffffff811115611a2657611a25612a0a565b5b6040519080825280601f01601f191660200182016040528015611a585781602001600182028036833780820191505090505b5090505b60008514611ae557600182611a7191906134a5565b9150600a85611a80919061388c565b6030611a8c919061368f565b60f81b818381518110611aa257611aa16131ae565b5b60200101907effffffffffffffffffffffffffffffffffffffffffffffffffffffffffffff1916908160001a905350600a85611ade919061385b565b9450611a5c565b8093505050505b919050565b60007f80ac58cd000000000000000000000000000000000000000000000000000000007bffffffffffffffffffffffffffffffffffffffffffffffffffffffff1916827bffffffffffffffffffffffffffffffffffffffffffffffffffffffff19161480611bbc57507f5b5e139f000000000000000000000000000000000000000000000000000000007bffffffffffffffffffffffffffffffffffffffffffffffffffffffff1916827bffffffffffffffffffffffffffffffffffffffffffffffffffffffff1916145b80611bcc5750611bcb82611dcb565b5b9050919050565b611bde838383611e35565b505050565b505050565b611bf28383611f49565b611bff6000848484611c43565b611c3e576040517f08c379a0000000000000000000000000000000000000000000000000000000008152600401611c35906137c3565b60405180910390fd5b505050565b6000611c648473ffffffffffffffffffffffffffffffffffffffff16612123565b15611dbe578373ffffffffffffffffffffffffffffffffffffffff1663150b7a02611c8d61138c565b8786866040518563ffffffff1660e01b8152600401611caf9493929190613912565b6020604051808303816000875af1925050508015611ceb57506040513d601f19601f82011682018060405250810190611ce89190613973565b60015b611d6e573d8060008114611d1b576040519150601f19603f3d011682016040523d82523d6000602084013e611d20565b606091505b50600081511415611d66576040517f08c379a0000000000000000000000000000000000000000000000000000000008152600401611d5d906137c3565b60405180910390fd5b805181602001fd5b63150b7a0260e01b7bffffffffffffffffffffffffffffffffffffffffffffffffffffffff1916817bffffffffffffffffffffffffffffffffffffffffffffffffffffffff191614915050611dc3565b600190505b949350505050565b60007f01ffc9a7000000000000000000000000000000000000000000000000000000007bffffffffffffffffffffffffffffffffffffffffffffffffffffffff1916827bffffffffffffffffffffffffffffffffffffffffffffffffffffffff1916149050919050565b611e40838383612146565b600073ffffffffffffffffffffffffffffffffffffffff168373ffffffffffffffffffffffffffffffffffffffff161415611e8357611e7e8161214b565b611ec2565b8173ffffffffffffffffffffffffffffffffffffffff168373ffffffffffffffffffffffffffffffffffffffff1614611ec157611ec08382612194565b5b5b600073ffffffffffffffffffffffffffffffffffffffff168273ffffffffffffffffffffffffffffffffffffffff161415611f0557611f0081612301565b611f44565b8273ffffffffffffffffffffffffffffffffffffffff168273ffffffffffffffffffffffffffffffffffffffff1614611f4357611f4282826123d2565b5b5b505050565b600073ffffffffffffffffffffffffffffffffffffffff168273ffffffffffffffffffffffffffffffffffffffff161415611fb9576040517f08c379a0000000000000000000000000000000000000000000000000000000008152600401611fb0906139ec565b60405180910390fd5b611fc281611320565b15612002576040517f08c379a0000000000000000000000000000000000000000000000000000000008152600401611ff990613a58565b60405180910390fd5b61200e60008383611bd3565b6001600360008473ffffffffffffffffffffffffffffffffffffffff1673ffffffffffffffffffffffffffffffffffffffff168152602001908152602001600020600082825461205e919061368f565b92505081905550816002600083815260200190815260200160002060006101000a81548173ffffffffffffffffffffffffffffffffffffffff021916908373ffffffffffffffffffffffffffffffffffffffff160217905550808273ffffffffffffffffffffffffffffffffffffffff16600073ffffffffffffffffffffffffffffffffffffffff167fddf252ad1be2c89b69c2b068fc378daa952ba7f163c4a11628f55a4df523b3ef60405160405180910390a461211f60008383611be3565b5050565b6000808273ffffffffffffffffffffffffffffffffffffffff163b119050919050565b505050565b6008805490506009600083815260200190815260200160002081905550600881908060018154018082558091505060019003906000526020600020016000909190919091505550565b600060016121a1846108b3565b6121ab91906134a5565b9050600060076000848152602001908152602001600020549050818114612290576000600660008673ffffffffffffffffffffffffffffffffffffffff1673ffffffffffffffffffffffffffffffffffffffff168152602001908152602001600020600084815260200190815260200160002054905080600660008773ffffffffffffffffffffffffffffffffffffffff1673ffffffffffffffffffffffffffffffffffffffff168152602001908152602001600020600084815260200190815260200160002081905550816007600083815260200190815260200160002081905550505b6007600084815260200190815260200160002060009055600660008573ffffffffffffffffffffffffffffffffffffffff1673ffffffffffffffffffffffffffffffffffffffff16815260200190815260200160002060008381526020019081526020016000206000905550505050565b6000600160088054905061231591906134a5565b9050600060096000848152602001908152602001600020549050600060088381548110612345576123446131ae565b5b906000526020600020015490508060088381548110612367576123666131ae565b5b9060005260206000200181905550816009600083815260200190815260200160002081905550600960008581526020019081526020016000206000905560088054806123b6576123b5613a78565b5b6001900381819060005260206000200160009055905550505050565b60006123dd836108b3565b905081600660008573ffffffffffffffffffffffffffffffffffffffff1673ffffffffffffffffffffffffffffffffffffffff168152602001908152602001600020600083815260200190815260200160002081905550806007600084815260200190815260200160002081905550505050565b82805461245d90612e10565b90600052602060002090601f01602090048101928261247f57600085556124c6565b82601f1061249857805160ff19168380011785556124c6565b828001600101855582156124c6579182015b828111156124c55782518255916020019190600101906124aa565b5b5090506124d391906124f8565b5090565b60405180606001604052806060815260200160608152602001606081525090565b5b808211156125115760008160009055506001016124f9565b5090565b6000604051905090565b600080fd5b600080fd5b60007fffffffff0000000000000000000000000000000000000000000000000000000082169050919050565b61255e81612529565b811461256957600080fd5b50565b60008135905061257b81612555565b92915050565b6000602082840312156125975761259661251f565b5b60006125a58482850161256c565b91505092915050565b60008115159050919050565b6125c3816125ae565b82525050565b60006020820190506125de60008301846125ba565b92915050565b600081519050919050565b600082825260208201905092915050565b60005b8381101561261e578082015181840152602081019050612603565b8381111561262d576000848401525b50505050565b6000601f19601f8301169050919050565b600061264f826125e4565b61265981856125ef565b9350612669818560208601612600565b61267281612633565b840191505092915050565b600060208201905081810360008301526126978184612644565b905092915050565b6000819050919050565b6126b28161269f565b81146126bd57600080fd5b50565b6000813590506126cf816126a9565b92915050565b6000602082840312156126eb576126ea61251f565b5b60006126f9848285016126c0565b91505092915050565b600073ffffffffffffffffffffffffffffffffffffffff82169050919050565b600061272d82612702565b9050919050565b61273d81612722565b82525050565b60006020820190506127586000830184612734565b92915050565b61276781612722565b811461277257600080fd5b50565b6000813590506127848161275e565b92915050565b600080604083850312156127a1576127a061251f565b5b60006127af85828601612775565b92505060206127c0858286016126c0565b9150509250929050565b6127d38161269f565b82525050565b60006020820190506127ee60008301846127ca565b92915050565b60008060006060848603121561280d5761280c61251f565b5b600061281b86828701612775565b935050602061282c86828701612775565b925050604061283d868287016126c0565b9150509250925092565b60006020828403121561285d5761285c61251f565b5b600061286b84828501612775565b91505092915050565b600081519050919050565b600082825260208201905092915050565b6000819050602082019050919050565b600082825260208201905092915050565b60006128bc826125e4565b6128c681856128a0565b93506128d6818560208601612600565b6128df81612633565b840191505092915050565b6000606083016000830151848203600086015261290782826128b1565b9150506020830151848203602086015261292182826128b1565b9150506040830151848203604086015261293b82826128b1565b9150508091505092915050565b600061295483836128ea565b905092915050565b6000602082019050919050565b600061297482612874565b61297e818561287f565b93508360208202850161299085612890565b8060005b858110156129cc57848403895281516129ad8582612948565b94506129b88361295c565b925060208a01995050600181019050612994565b50829750879550505050505092915050565b600060208201905081810360008301526129f88184612969565b905092915050565b600080fd5b600080fd5b7f4e487b7100000000000000000000000000000000000000000000000000000000600052604160045260246000fd5b612a4282612633565b810181811067ffffffffffffffff82111715612a6157612a60612a0a565b5b80604052505050565b6000612a74612515565b9050612a808282612a39565b919050565b600067ffffffffffffffff821115612aa057612a9f612a0a565b5b612aa982612633565b9050602081019050919050565b82818337600083830152505050565b6000612ad8612ad384612a85565b612a6a565b905082815260208101848484011115612af457612af3612a05565b5b612aff848285612ab6565b509392505050565b600082601f830112612b1c57612b1b612a00565b5b8135612b2c848260208601612ac5565b91505092915050565b60008060408385031215612b4c57612b4b61251f565b5b6000612b5a85828601612775565b925050602083013567ffffffffffffffff811115612b7b57612b7a612524565b5b612b8785828601612b07565b9150509250929050565b612b9a816125ae565b8114612ba557600080fd5b50565b600081359050612bb781612b91565b92915050565b60008060408385031215612bd457612bd361251f565b5b6000612be285828601612775565b9250506020612bf385828601612ba8565b9150509250929050565b600067ffffffffffffffff821115612c1857612c17612a0a565b5b612c2182612633565b9050602081019050919050565b6000612c41612c3c84612bfd565b612a6a565b905082815260208101848484011115612c5d57612c5c612a05565b5b612c68848285612ab6565b509392505050565b600082601f830112612c8557612c84612a00565b5b8135612c95848260208601612c2e565b91505092915050565b60008060008060808587031215612cb857612cb761251f565b5b6000612cc687828801612775565b9450506020612cd787828801612775565b9350506040612ce8878288016126c0565b925050606085013567ffffffffffffffff811115612d0957612d08612524565b5b612d1587828801612c70565b91505092959194509250565b60006060830160008301518482036000860152612d3e82826128b1565b91505060208301518482036020860152612d5882826128b1565b91505060408301518482036040860152612d7282826128b1565b9150508091505092915050565b60006020820190508181036000830152612d998184612d21565b905092915050565b60008060408385031215612db857612db761251f565b5b6000612dc685828601612775565b9250506020612dd785828601612775565b9150509250929050565b7f4e487b7100000000000000000000000000000000000000000000000000000000600052602260045260246000fd5b60006002820490506001821680612e2857607f821691505b60208210811415612e3c57612e3b612de1565b5b50919050565b7f4552433732313a20617070726f76656420717565727920666f72206e6f6e657860008201527f697374656e7420746f6b656e0000000000000000000000000000000000000000602082015250565b6000612e9e602c836125ef565b9150612ea982612e42565b604082019050919050565b60006020820190508181036000830152612ecd81612e91565b9050919050565b7f4552433732313a20617070726f76616c20746f2063757272656e74206f776e6560008201527f7200000000000000000000000000000000000000000000000000000000000000602082015250565b6000612f306021836125ef565b9150612f3b82612ed4565b604082019050919050565b60006020820190508181036000830152612f5f81612f23565b9050919050565b7f4552433732313a20617070726f76652063616c6c6572206973206e6f74206f7760008201527f6e6572206e6f7220617070726f76656420666f7220616c6c0000000000000000602082015250565b6000612fc26038836125ef565b9150612fcd82612f66565b604082019050919050565b60006020820190508181036000830152612ff181612fb5565b9050919050565b7f4552433732313a207472616e736665722063616c6c6572206973206e6f74206f60008201527f776e6572206e6f7220617070726f766564000000000000000000000000000000602082015250565b60006130546031836125ef565b915061305f82612ff8565b604082019050919050565b6000602082019050818103600083015261308381613047565b9050919050565b7f455243373231456e756d657261626c653a206f776e657220696e646578206f7560008201527f74206f6620626f756e6473000000000000000000000000000000000000000000602082015250565b60006130e6602b836125ef565b91506130f18261308a565b604082019050919050565b60006020820190508181036000830152613115816130d9565b9050919050565b7f455243373231456e756d657261626c653a20676c6f62616c20696e646578206f60008201527f7574206f6620626f756e64730000000000000000000000000000000000000000602082015250565b6000613178602c836125ef565b91506131838261311c565b604082019050919050565b600060208201905081810360008301526131a78161316b565b9050919050565b7f4e487b7100000000000000000000000000000000000000000000000000000000600052603260045260246000fd5b7f4552433732313a206f776e657220717565727920666f72206e6f6e657869737460008201527f656e7420746f6b656e0000000000000000000000000000000000000000000000602082015250565b60006132396029836125ef565b9150613244826131dd565b604082019050919050565b600060208201905081810360008301526132688161322c565b9050919050565b7f4552433732313a2062616c616e636520717565727920666f7220746865207a6560008201527f726f206164647265737300000000000000000000000000000000000000000000602082015250565b60006132cb602a836125ef565b91506132d68261326f565b604082019050919050565b600060208201905081810360008301526132fa816132be565b9050919050565b600081905092915050565b6000613317826125e4565b6133218185613301565b9350613331818560208601612600565b80840191505092915050565b6000613349828461330c565b915081905092915050565b7f54686520746f6b656e205552492073686f756c6420626520756e697175650000600082015250565b600061338a601e836125ef565b915061339582613354565b602082019050919050565b600060208201905081810360008301526133b98161337d565b9050919050565b7f4552433732314d657461646174613a2055524920717565727920666f72206e6f60008201527f6e6578697374656e7420746f6b656e0000000000000000000000000000000000602082015250565b600061341c602f836125ef565b9150613427826133c0565b604082019050919050565b6000602082019050818103600083015261344b8161340f565b9050919050565b600061345e828561330c565b915061346a828461330c565b91508190509392505050565b7f4e487b7100000000000000000000000000000000000000000000000000000000600052601160045260246000fd5b60006134b08261269f565b91506134bb8361269f565b9250828210156134ce576134cd613476565b5b828203905092915050565b7f4552433732313a206f70657261746f7220717565727920666f72206e6f6e657860008201527f697374656e7420746f6b656e0000000000000000000000000000000000000000602082015250565b6000613535602c836125ef565b9150613540826134d9565b604082019050919050565b6000602082019050818103600083015261356481613528565b9050919050565b7f4552433732313a207472616e736665722066726f6d20696e636f72726563742060008201527f6f776e6572000000000000000000000000000000000000000000000000000000602082015250565b60006135c76025836125ef565b91506135d28261356b565b604082019050919050565b600060208201905081810360008301526135f6816135ba565b9050919050565b7f4552433732313a207472616e7366657220746f20746865207a65726f2061646460008201527f7265737300000000000000000000000000000000000000000000000000000000602082015250565b60006136596024836125ef565b9150613664826135fd565b604082019050919050565b600060208201905081810360008301526136888161364c565b9050919050565b600061369a8261269f565b91506136a58361269f565b9250827fffffffffffffffffffffffffffffffffffffffffffffffffffffffffffffffff038211156136da576136d9613476565b5b828201905092915050565b7f4552433732313a20617070726f766520746f2063616c6c657200000000000000600082015250565b600061371b6019836125ef565b9150613726826136e5565b602082019050919050565b6000602082019050818103600083015261374a8161370e565b9050919050565b7f4552433732313a207472616e7366657220746f206e6f6e20455243373231526560008201527f63656976657220696d706c656d656e7465720000000000000000000000000000602082015250565b60006137ad6032836125ef565b91506137b882613751565b604082019050919050565b600060208201905081810360008301526137dc816137a0565b9050919050565b60006137ee8261269f565b91507fffffffffffffffffffffffffffffffffffffffffffffffffffffffffffffffff82141561382157613820613476565b5b600182019050919050565b7f4e487b7100000000000000000000000000000000000000000000000000000000600052601260045260246000fd5b60006138668261269f565b91506138718361269f565b9250826138815761388061382c565b5b828204905092915050565b60006138978261269f565b91506138a28361269f565b9250826138b2576138b161382c565b5b828206905092915050565b600081519050919050565b600082825260208201905092915050565b60006138e4826138bd565b6138ee81856138c8565b93506138fe818560208601612600565b61390781612633565b840191505092915050565b60006080820190506139276000830187612734565b6139346020830186612734565b61394160408301856127ca565b818103606083015261395381846138d9565b905095945050505050565b60008151905061396d81612555565b92915050565b6000602082840312156139895761398861251f565b5b60006139978482850161395e565b91505092915050565b7f4552433732313a206d696e7420746f20746865207a65726f2061646472657373600082015250565b60006139d66020836125ef565b91506139e1826139a0565b602082019050919050565b60006020820190508181036000830152613a05816139c9565b9050919050565b7f4552433732313a20746f6b656e20616c7265616479206d696e74656400000000600082015250565b6000613a42601c836125ef565b9150613a4d82613a0c565b602082019050919050565b60006020820190508181036000830152613a7181613a35565b9050919050565b7f4e487b7100000000000000000000000000000000000000000000000000000000600052603160045260246000fdfea2646970667358221220e0d2fa803b9bc2730bdf24494ab82a064555329284acd7e5617d0ac58c81a9c164736f6c634300080b0033",
  "immutableReferences": {},
  "source": "// SPDX-License-Identifier: MIT\r\npragma solidity ^0.8.0;\r\n\r\nimport \"@openzeppelin/contracts/token/ERC721/ERC721.sol\";\r\nimport \"@openzeppelin/contracts/token/ERC721/extensions/ERC721Enumerable.sol\";\r\n\r\ncontract NFTMinter is ERC721, ERC721Enumerable {\r\n\r\n  struct NFT {\r\n    string tokenURI;\r\n    string fileType;\r\n    string content;\r\n  }\r\n\r\n  NFT[] nfts;\r\n  mapping(string => bool) _tokenURIExists;\r\n\r\n  constructor() \r\n    ERC721(\"NFT Minter\", \"NFTM\") \r\n  {\r\n  }\r\n\r\n  function _beforeTokenTransfer(address from, address to, uint256 tokenId) internal override(ERC721, ERC721Enumerable) {\r\n    super._beforeTokenTransfer(from, to, tokenId);\r\n  }\r\n\r\n  function supportsInterface(bytes4 interfaceId) public view override(ERC721, ERC721Enumerable) returns (bool) {\r\n    return super.supportsInterface(interfaceId);\r\n  }\r\n\r\n  function safeMintImage(address _minter, string memory _tokenURI) public {\r\n    require(!_tokenURIExists[_tokenURI], 'The token URI should be unique');\r\n    nfts.push(NFT(_tokenURI, \"image\", ''));\r\n    uint _id = nfts.length;\r\n    _safeMint(_minter, _id);\r\n    _tokenURIExists[_tokenURI] = true;\r\n  }\r\n\r\n  function safeMintText(address _minter, string memory _content) public {\r\n    nfts.push(NFT('', \"text\", _content));\r\n    uint _id = nfts.length;\r\n    _safeMint(_minter, _id);\r\n  }\r\n\r\n  function fetchNFTs() public view returns(NFT[] memory) {\r\n    return nfts;\r\n  }\r\n\r\n  function fetchNFT(uint tokenId) public view returns(NFT memory) {\r\n    require(_exists(tokenId), 'ERC721Metadata: URI query for nonexistent token');\r\n    return nfts[tokenId - 1];\r\n  }\r\n}",
  "sourcePath": "D:\\WORK\\NFT\\NFTMinter\\Contract\\contracts\\NFTMinter.sol",
  "compiler": {
    "name": "solc",
    "version": "0.8.11+commit.d7f03943.Emscripten.clang"
  },
  "schemaVersion": "3.4.4",
  "updatedAt": "2022-06-11T12:58:45.559Z",
  "devdoc": {
    "kind": "dev",
    "methods": {
      "approve(address,uint256)": {
        "details": "See {IERC721-approve}."
      },
      "balanceOf(address)": {
        "details": "See {IERC721-balanceOf}."
      },
      "getApproved(uint256)": {
        "details": "See {IERC721-getApproved}."
      },
      "isApprovedForAll(address,address)": {
        "details": "See {IERC721-isApprovedForAll}."
      },
      "name()": {
        "details": "See {IERC721Metadata-name}."
      },
      "ownerOf(uint256)": {
        "details": "See {IERC721-ownerOf}."
      },
      "safeTransferFrom(address,address,uint256)": {
        "details": "See {IERC721-safeTransferFrom}."
      },
      "safeTransferFrom(address,address,uint256,bytes)": {
        "details": "See {IERC721-safeTransferFrom}."
      },
      "setApprovalForAll(address,bool)": {
        "details": "See {IERC721-setApprovalForAll}."
      },
      "symbol()": {
        "details": "See {IERC721Metadata-symbol}."
      },
      "tokenByIndex(uint256)": {
        "details": "See {IERC721Enumerable-tokenByIndex}."
      },
      "tokenOfOwnerByIndex(address,uint256)": {
        "details": "See {IERC721Enumerable-tokenOfOwnerByIndex}."
      },
      "tokenURI(uint256)": {
        "details": "See {IERC721Metadata-tokenURI}."
      },
      "totalSupply()": {
        "details": "See {IERC721Enumerable-totalSupply}."
      },
      "transferFrom(address,address,uint256)": {
        "details": "See {IERC721-transferFrom}."
      }
    },
    "version": 1
  },
  "userdoc": {
    "kind": "user",
    "methods": {},
    "version": 1
  }
}